:060000000A128A11FC2F18
:100EF00083160313860183120313860183160313DB
:100F00000614861406118611061286128312031324
:100F1000061C8B2F8C2F9F2F0130F3070318F40A28
:100F20000030F4070D30F200AF30F100B630F000C1
:100F3000F00B982FF10B982FF20B982F00008312D3
:100F40000313861CA42FA52FBE2F73087404031946
:100F5000AA2FAB2FBE2F0130F3020030031CF40385
:100F6000F4020D30F200AF30F100B630F000F00BBB
:100F7000B72FF10BB72FF20BB72F000073087404D3
:100F80000319C32FC42FDE2F00307402033003195E
:100F900073020318CC2FCD2FDE2F831203130615F7
:100FA0001A30F2005E30F1006E30F000F00BD62FF8
:100FB000F10BD62FF20BD62F0000862F00307402D3
:100FC000033003197302031CE62FE72FF42F0030C0
:100FD00074020530031973020318EF2FF02FF42F5A
:100FE000831203138615D02F831203130611861163
:100FF000862F0A128A11002883010A128A11782F7B
:02400E00FA3F77
:00000001FF
